:100000000C942A000C9447000C9447000C94470071
:100010000C9447000C9447000C9447000C94470044
:100020000C9447000C9447000C94B9000C94900079
:100030000C9447000C9447000C9447000C94470024
:100040000C9447000C9447000C9447000C94470014
:100050000C94470011241FBECFE5D8E0DEBFCDBF12
:1000600010E0A0E6B0E0E4E4FAE002C005900D92F2
:10007000A036B107D9F720E0A0E6B0E001C01D929C
:10008000A03CB207E1F70E9458000C9420050C94A4
:10009000000095B380E1892785BB089595B380E280
:1000A000892785BB089595B380E4892785BB08958A
:1000B0008FEF81BB84BB17BA80E090E022E0FC01A7
:1000C000208311820E948701789441E069E470E006
:1000D00088EE93E00E94980141E06EE470E08CEBC2
:1000E00092E00E94980140E063E570E080E991E0D1
:1000F0000E9498010E94FD02B09B06C08EE490E031
:100100000E94C501B099FECFB19BF4CF41E063E5F9
:1001100070E084EF91E00E949801B199FECFEACFA0
:100120001F920F920FB60F9211242F933F934F936C
:100130005F936F937F938F939F93AF93BF93EF934F
:10014000FF93E0916000F0916100309709F009950C
:10015000FF91EF91BF91AF919F918F917F916F919F
:100160005F914F913F912F910F900FBE0F901F9075
:1001700018951F920F920FB60F9211242F933F9351
:100180004F935F936F937F938F939F93AF93BF939F
:10019000EF93FF93E0916000F0916100309709F0D8
:1001A0000995FF91EF91BF91AF919F918F917F91B1
:1001B0006F915F914F913F912F910F900FBE0F90D4
:1001C0001F901895909361008093600008958111AD
:1001D00006C012BE80E883BF89B7816089BF0895D9
:1001E000623019F482E083BF089582E083BF0895EE
:1001F00082B3809582BB81E08093BF00E091BE0016
:100200002091BD00E21728F58E2F90E0422F50E09C
:10021000841795070CF07AC0FC01EE0FFF1FEE0F5C
:10022000FF1FEE59FF4F9A01220F331F220F331F7A
:100230002E593F4F80819181A281B3810196A11DEA
:10024000B11D81939193A193B1932E173F0791F71D
:1002500008952E1738F58E2F90E08A3091050CF016
:1002600055C03AE0FC01EE0FFF1FEE0FFF1FEE59E5
:10027000FF4F40815181628173814F5F5F4F6F4FAC
:100280007F4F40835183628373838930910519F4D2
:10029000322F80E090E00196432F50E084179507BD
:1002A0000CF30895E21332C08091BC00813071F5E7
:1002B0008E2F90E08A3091052CF5AAE0B8E025B3A6
:1002C0002B2725BBFC01EE0FFF1FEE0FFF1FEE5982
:1002D000FF4F40815181628173814F5F5F4F6F4F4C
:1002E0007F4F40835183628373838930910521F46A
:1002F000A091BD0080E090E001962A2F30E08217A7
:100300009307ECF295B388E0892785BB0895CF93D6
:10031000DF93EC0189810E94E700688189810E9456
:10032000F00088EF90E00E94E200DF91CF91089505
:10033000DC019091BC00911127C085B392E0982711
:1003400095BB2091BD0030E0F901EE0FFF1FEE0FCD
:10035000FF1FE20FF31FE657FF4F71836083B383E4
:10036000A2834483C90101966AE070E00E94F80408
:100370008093BD009091BE00981306C085B391E0B4
:10038000892785BB9093BC0008950F931F93CF934B
:10039000DF939C019091BE00C091BD009C1708F0B6
:1003A00058C0492F50E0FA01EE0FFF1FEE0FFF1F5C
:1003B000E40FF51FE657FF4F60817181261737075D
:1003C00009F042C011C0A92FB0E0FD01EE0FFF1FE0
:1003D000EE0FFF1FEA0FFB1FE657FF4F6081718191
:1003E0006217730789F501C0DA01CD01880F991FE3
:1003F000880F991FA80FB91FA657BF4F9A01220F48
:10040000331F220F331FF901E40FF51FE657FF4F8B
:1004100065E001900D926A95E1F7F901EE59FF4F01
:100420000081118122813381FC01EE59FF4F00834D
:10043000118322833383CA0101966AE070E00E942F
:10044000F8048093BE00D4C09F5F9C1708F4BBCF14
:10045000CFC0C91708F05FC09A3008F0C9C0492F53
:1004600050E0FA01EE0FFF1FEE0FFF1FE40FF51F24
:10047000E657FF4F608171812617370799F08AE0B0
:1004800041C0A92FB0E0FD01EE0FFF1FEE0FFF1FCF
:10049000EA0FFB1FE657FF4F608171812617370770
:1004A00089F501C0DA01CD01880F991F880F991FC6
:1004B000A80FB91FA657BF4F9A01220F331F220F53
:1004C000331FF901E40FF51FE657FF4F65E0019078
:1004D0000D926A95E1F7F901EE59FF4F0081118104
:1004E00022813381FC01EE59FF4F00831183228367
:1004F0003383CA0101966AE070E00E94F804809399
:10050000BE0076C0993011F48C2F90E09F5F981751
:1005100008F4B7CF6DC09C136BC08091BC008130D4
:1005200009F066C09A3008F063C0C92FD0E0FE0120
:10053000EE0FFF1FEE0FFF1FEC0FFD1FE657FF4FE3
:100540004081518124173507A9F0492F8AE048C01E
:10055000642F70E0FB01EE0FFF1FEE0FFF1FE60F91
:10056000F71FE657FF4F0190F081E02D2E173F0750
:10057000B9F501C0BE01CB01880F991F880F991FE3
:10058000680F791FDB01A657BF4F9E01220F331F53
:10059000220F331FF901EC0FFD1FE657FF4F45E017
:1005A00001900D924A95E1F7F901EE59FF4F408114
:1005B000518162817381FC01EE59FF4F4083518369
:1005C00062837383CE0101966AE070E00E94F804B2
:1005D0008093BE0085B3805885BB1092BC0008C0D4
:1005E000493011F4892F40E04F5F481708F4B0CF2D
:1005F000DF91CF911F910F9108952F923F924F92CB
:100600005F926F927F928F929F92AF92BF92CF92A2
:10061000DF92EF92FF920F931F93CF93DF9380911E
:10062000BF00813009F0D0C1C091BE008091BD00F3
:10063000C81708F083C0EC2EF12C90E0E816F906FC
:100640000CF0B8C1E701CE01880F991F880F991FE0
:100650008C010E591F4FC80FD91FC657DF4F80E0BE
:10066000312C0F2EFBEF2F2EF02D0F2EFAE08F2EB8
:10067000912CF02D68015E014A815B8160E070E0A1
:10068000D8014D905D906D907C904416550666069D
:10069000770608F445C0F801108211821282138295
:1006A000E881F98109958C81811126C08091BE0075
:1006B00090E09C01220F331F220F331FF901E80F36
:1006C000F91FE657FF4F45E0DE0101900D924A9574
:1006D000E1F7F901EE59FF4F408151816281738149
:1006E000D8014D935D936D937C9313970196B4015C
:1006F0000E94F8048093BE00F50182819381880FE7
:10070000991FA0E0B0E0F6014081518162817381C0
:1007100084179507A607B70710F4822D01C0832D13
:10072000FFEFEF1AFF0A0C5F1F4F25962091BD00C7
:1007300030E0E216F3060CF49DCF43C18C1708F0AD
:1007400092C0CA3008F038C1DAE080E0C12C0F2E28
:10075000FBEFDF2EF02D0F2EFAE06F2E712CF02D17
:10076000EC2EF12C9701220F331F220F331FD901DA
:10077000AE59BF4F2E0D3F1DF901E657FF4F428185
:10078000538160E070E08D909D90AD90BC90139788
:1007900084169506A606B70608F45BC0FD01108214
:1007A000118212821382890106571F4FD801ED91E1
:1007B000FC910995F801848181112CC08091BE00C3
:1007C00090E09701220F331F220F331FD801AC0195
:1007D000440F551F440F551FFA01E80FF91FE65744
:1007E000FF4F65E001900D926A95E1F7FA01EE592D
:1007F000FF4F4081518162817381F901EE59FF4FB2
:1008000040835183628373830196B3010E94F8048D
:100810008093BE00F701EE0FFF1FEE0FFF1F9F0139
:100820002E593F4FEE0DFF1DE657FF4F82819381FA
:10083000880F991FA0E0B0E0F901408151816281E9
:10084000738184179507A607B70710F48D2D01C093
:100850008C2DC93019F4D091BD00C0E0CF5FCD1709
:1008600008F47ECFAEC0C813A9C08091BC0081300F
:1008700009F0A6C0CA3008F097C0DAE080E06894BA
:10088000AA24A2F8B12C0F2EFBEF9F2EF02D0F2ED5
:10089000FAE0CF2ED12CF02DEC2EF12C9701220F67
:1008A000331F220F331FD901AE59BF4F2E0D3F1DED
:1008B000F901E657FF4F4281538160E070E04D90AF
:1008C0005D906D907C9013974416550666067706EA
:1008D00008F460C085B38A2585BBFD0110821182B2
:1008E00012821382890106571F4FD801ED91FC91A6
:1008F0000995F801848181112EC08091BE0090E09D
:100900009701220F331F220F331FD801AC01440F70
:10091000551F440F551FFA01E80FF91FE657FF4F07
:1009200065E001900D926A95E1F7FA01EE59FF4FEB
:100930004081518162817381F901EE59FF4F4083FB
:100940005183628373830196B6010E94F8048093F9
:10095000BE00B092BC00F701EE0FFF1FEE0FFF1FAD
:10096000DF01AE59BF4FEE0DFF1DE657FF4F42812D
:100970005381440F551F60E070E08D919D910D9063
:10098000BC91A02D481759076A077B0710F4892DE1
:1009900001C08B2DC93019F4D091BD00C0E0CF5FEC
:1009A000CD1708F479CF01C080E025B394E09227F9
:1009B00095BB07C080E005C080E003C08DEF01C09B
:1009C0008DEF1092BF0001C080E0DF91CF911F91A9
:1009D0000F91FF90EF90DF90CF90BF90AF909F90DE
:1009E0008F907F906F905F904F903F902F900895E1
:1009F00097FB072E16F4009407D077FD09D00E94CC
:100A00000C0507FC05D03EF4909581959F4F089505
:100A1000709561957F4F0895AA1BBB1B51E107C0DC
:100A2000AA1FBB1FA617B70710F0A61BB70B881F7E
:100A3000991F5A95A9F780959095BC01CD0108950D
:040A4000F894FFCF58
:00000001FF
